:100000000C9435000C945D000C945D000C945D0024
:100010000C945D000C945D000C945D000C945D00EC
:100020000C945D000C945D000C945D000C945D00DC
:100030000C945D000C945D000C945D000C945D00CC
:100040000C94A4040C945D000C9453020C9485024F
:100050000C945D000C945D000C945D000C945D00AC
:100060000C945D000C945D00B50211241FBECFEF0F
:10007000D8E0DEBFCDBF11E0A0E0B1E0E8EAFFE0EC
:1000800002C005900D92A233B107D9F721E0A2E397
:10009000B1E001C01D92A03EB207E1F710E0CAE650
:1000A000D0E004C02297FE010E948705C836D10720
:1000B000C9F70E9495040C94D2070C94000026E026
:1000C00040E855E260E070E086E391E00C94F101D5
:1000D000AF92BF92CF92DF92EF92FF920F931F9356
:1000E000CF93DF93CDB7DEB762970FB6F894DEBF3C
:1000F0000FBECDBF8EE00E94F1009093350180933A
:100100003401BC01882777FD8095982F1F921F929C
:100110001F921F922EE0A22EB12CC12CD12C18E5DB
:10012000E12E12E0F12E00E010E028EC30E040E09B
:1001300050E00E945A03709333016093320162E2EF
:1001400071E0CE010D960E940F040F900F900F905A
:100150000F9000E010E08091320190913301801700
:1001600091074CF06BE071E0CE010D960E94710496
:100170000F5F1F4FF0CF6DE071E0CE0101960E943E
:100180000F04BE01635F7F4FCE0101960E94810480
:10019000BC01CE0107960E943C04CE0101960E944C
:1001A000A103BE01695F7F4F86E391E00E9448038F
:1001B000CE0107960E94A103CE010D960E94A103D5
:1001C00062960FB6F894DEBF0FBECDBFDF91CF9120
:1001D0001F910F91FF90EF90DF90CF90BF90AF9065
:1001E00008958E3008F08E50877020910A0190E4B7
:1001F000299F90011124822B80937C0080917A00AA
:10020000806480937A0080917A0086FDFCCF809193
:1002100078002091790090E0922B0895FC01818D67
:10022000228D90E0805C9F4F821B91098F739927EC
:100230000895FC01918D828D981731F0828DE80F21
:10024000F11D858D90E008958FEF9FEF0895FC01DB
:10025000918D828D981761F0828DDF01A80FB11DFD
:100260005D968C91928D9F5F9F73928F90E0089521
:100270008FEF9FEF08958BEA92E0892B49F080E0A1
:1002800090E0892B29F00E94AB0281110C940000B0
:100290000895FC01848DDF01A80FB11DA35ABF4F43
:1002A0002C91848D90E001968F739927848FA68975
:1002B000B7892C93A089B1898C9180648C93938D9C
:1002C000848D981306C00288F389E02D80818F7D8C
:1002D00080830895CF93DF93EC01888D8823C9F044
:1002E000EA89FB89808185FD05C0A889B9898C913F
:1002F00086FD0FC00FB607FCF5CF808185FFF2CFDA
:10030000A889B9898C9185FFEDCFCE010E94490162
:10031000E7CFDF91CF910895CF92DF92FF920F93B5
:100320001F93CF93DF931F92CDB7DEB76C0181E0AF
:10033000D60158968C9358975B969C915B975C96E8
:100340008C915C97981307C05096ED91FC91519752
:10035000808185FD2EC0F601038D10E00F5F1F4FD9
:100360000F731127F02EF601848DF81211C00FB60D
:1003700007FCF9CFD6015096ED91FC915197808101
:1003800085FFF1CFC60169830E9449016981EBCFE6
:10039000838DE80FF11DE35AFF4F6083D6015B9612
:1003A0000C935B975296ED91FC91539780818062FC
:1003B0000CC0D6015696ED91FC91579760835096EC
:1003C000ED91FC91519780818064808381E090E081
:1003D0000F90DF91CF911F910F91FF90DF90CF9001
:1003E0000895BF92CF92DF92EF92FF92CF93DF9367
:1003F000EC016A017B01B22EE889F98982E08083F1
:10040000411581EE580761057105A1F060E079E0C2
:100410008DE390E0A70196010E9439052150310932
:10042000410951095695479537952795211580E142
:10043000380798F0E889F989108260E874E88EE15D
:1004400090E0A70196010E94390521503109410928
:1004500051095695479537952795EC85FD8530834D
:10046000EE85FF852083188EEC89FD89B082EA89AC
:10047000FB89808180618083EA89FB898081886033
:100480008083EA89FB89808180688083EA89FB898F
:1004900080818F7D8083DF91CF91FF90EF90DF90FF
:1004A000CF90BF9008951F920F920FB60F92112414
:1004B0002F938F939F93EF93FF93E0914601F091D9
:1004C00047018081E0914C01F0914D0182FD12C005
:1004D000908180914F018F5F8F732091500182171F
:1004E00051F0E0914F01F0E0EA5CFE4F958F809370
:1004F0004F0101C08081FF91EF919F918F912F91CA
:100500000F900FBE0F901F9018951F920F920FB66D
:100510000F9211242F933F934F935F936F937F9389
:100520008F939F93AF93BF93EF93FF9386E391E0F5
:100530000E944901FF91EF91BF91AF919F918F91DF
:100540007F916F915F914F913F912F910F900FBECF
:100550000F901F90189586E391E00E940E0121E014
:10056000892B09F420E0822F08951092390110920E
:10057000380188EE93E0A0E0B0E080933A019093D8
:100580003B01A0933C01B0933D0184E191E0909345
:1005900037018093360185EC90E09093430180937E
:1005A000420184EC90E0909345018093440180ECFB
:1005B00090E0909347018093460181EC90E0909306
:1005C00049018093480182EC90E090934B01809325
:1005D0004A0186EC90E090934D0180934C0110927B
:1005E0004F01109250011092510110925201089542
:1005F000CF92DF92EF92FF920F931F93CF93DF93EF
:100600007C016A01EB0100E010E00C151D0571F0A2
:100610006991D701ED91FC910190F081E02DC70126
:100620000995892B19F00F5F1F4FEFCFC801DF919C
:10063000CF911F910F91FF90EF90DF90CF90089591
:100640006115710581F0DB010D900020E9F7AD0126
:1006500041505109461B570BDC01ED91FC91028082
:10066000F381E02D099480E090E00895DC01ED91A4
:10067000FC91DB0114964D915C9115976D917C91E5
:100680000280F381E02D099460E271E00C94200374
:100690000F931F93CF93DF93EC010E9436038C01DD
:1006A000CE010E944403800F911FDF91CF911F91D3
:1006B0000F9108954F925F926F927F92AF92BF9287
:1006C000CF92DF92EF92FF920F931F93CF93DF931E
:1006D000CDB7DEB729013A01621B730B840B950B72
:1006E00029893A894B895C892A193B094C095D099A
:1006F000298B3A8B4B8B5C8B9B01AC0169897A8986
:100700008B899C890E942905E418F50806091709B8
:10071000A80197010E945B052A0D3B1D4C1D5D1D24
:10072000CA01B901DF91CF911F910F91FF90EF9016
:10073000DF90CF90BF90AF907F906F905F904F9081
:100740000895FC01808191810C943206CF93DF9350
:10075000EC0188819981009711F00E94320619827C
:1007600018821D821C821B821A82DF91CF9108950C
:100770000F931F93CF93DF93EC018B016F5F7F4F3C
:10078000888199810E94C106009731F099838883FE
:100790001B830A8381E001C080E0DF91CF911F912C
:1007A0000F910895CF93DF93EC0188819981892B74
:1007B00029F08A819B818617970760F4CE010E94F9
:1007C000B803882341F08C819D81892B19F4E8813D
:1007D000F981108281E0DF91CF910895EF92FF922D
:1007E0000F931F93CF93DF93EC017B018A01BA0132
:1007F0000E94D203811104C0CE010E94A60307C04B
:100800001D830C83B701888199810E949407CE01D2
:10081000DF91CF911F910F91FF90EF900895FC0110
:100820001182108213821282158214826115710561
:1008300059F0FB0101900020E9F7AF014150510947
:10084000461B570B0C94EE030895CF93DF93EC01F6
:10085000FB018617970761F0608171816115710551
:1008600029F0448155810E94EE0302C00E94A60334
:10087000CE01DF91CF910895FC0111821082138285
:100880001282158214820C942504EF92FF920F932A
:100890001F93CF93DF93EC017B010C811D816115C8
:1008A000710511F480E016C04115510591F0040F57
:1008B000151FB8010E94D2038823A1F32881398132
:1008C0008C819D81B701820F931F0E9494071D8325
:1008D0000C8381E0DF91CF911F910F91FF90EF90FA
:1008E00008956115710559F0FB0101900020E9F7A9
:1008F000AF0141505109461B570B0C94450480E051
:100900000895CF93DF93EC01FB0144815581608111
:1009100071810E944504811103C0CE010E94A6038B
:10092000CE01DF91CF91089508950E94EE040E94B8
:1009300094040E945F00CBE3D1E00E9468002097FE
:10094000E1F30E943B01F9CF1F920F920FB60F9275
:1009500011242F933F938F939F93AF93BF938091D5
:10096000D4019091D501A091D601B091D7013091D9
:10097000D30123E0230F2D3720F40196A11DB11DD3
:1009800005C026E8230F0296A11DB11D2093D301B7
:100990008093D4019093D501A093D601B093D70151
:1009A0008091D8019091D901A091DA01B091DB0139
:1009B0000196A11DB11D8093D8019093D901A093F8
:1009C000DA01B093DB01BF91AF919F918F913F917D
:1009D0002F910F900FBE0F901F901895789484B5AB
:1009E000826084BD84B5816084BD85B5826085BD2B
:1009F00085B5816085BDEEE6F0E080818160808311
:100A0000E1E8F0E0108280818260808380818160F3
:100A10008083E0E8F0E0808181608083E1EBF0E0BA
:100A2000808184608083E0EBF0E08081816080835E
:100A3000EAE7F0E080818460808380818260808347
:100A40008081816080838081806880831092C10072
:100A50000895DB018F939F930E947A05BF91AF9118
:100A6000A29F800D911DA39F900DB29F900D112408
:100A70000895A1E21A2EAA1BBB1BFD010DC0AA1FDF
:100A8000BB1FEE1FFF1FA217B307E407F50720F0F7
:100A9000A21BB30BE40BF50B661F771F881F991F72
:100AA0001A9469F760957095809590959B01AC01BB
:100AB000BD01CF010895052E97FB1EF400940E94FE
:100AC000720557FD07D00E94390507FC03D04EF48C
:100AD0000C94720550954095309521953F4F4F4F9E
:100AE0005F4F089590958095709561957F4F8F4FDA
:100AF0009F4F08950E948B05A59F900DB49F900D68
:100B0000A49F800D911D11240895EE0FFF1F0590E5
:100B1000F491E02D0994A29FB001B39FC001A39F5F
:100B2000700D811D1124911DB29F700D811D112426
:100B3000911D0895CF93DF938230910510F482E0E8
:100B400090E0E091DE01F091DF0120E030E0A0E0F4
:100B5000B0E0309739F14081518148175907B8F01A
:100B60004817590771F482819381109729F01396E1
:100B70009C938E9312972CC09093DF018093DE019B
:100B800027C02115310531F04217530718F0A9018C
:100B9000DB0101C0EF019A01BD01DF010280F38199
:100BA000E02DD7CF21153105F9F0281B390B243062
:100BB000310580F48A819B816115710521F0FB016B
:100BC0009383828304C09093DF018093DE01FE0152
:100BD000329644C0FE01E20FF31F8193919322509D
:100BE0003109398328833AC02091DC013091DD013D
:100BF000232B41F420910201309103013093DD0158
:100C00002093DC0120910001309101012115310573
:100C100041F42DB73EB74091040150910501241BCA
:100C2000350BE091DC01F091DD01E217F307A0F450
:100C30002E1B3F0B2817390778F0AC014E5F5F4F32
:100C40002417350748F04E0F5F1F5093DD01409386
:100C5000DC018193919302C0E0E0F0E0CF01DF91ED
:100C6000CF910895CF93DF93009709F487C0FC01DB
:100C7000329713821282C091DE01D091DF0120975A
:100C800081F420813181280F391F8091DC019091FE
:100C9000DD018217930779F5F093DD01E093DC0124
:100CA0006DC0DE0120E030E0AE17BF0750F41296B1
:100CB0004D915C9113979D014115510509F1DA01A0
:100CC000F3CFB383A28340815181840F951F8A178C
:100CD0009B0771F48D919C911197840F951F02963B
:100CE0009183808312968D919C9113979383828335
:100CF0002115310529F4F093DF01E093DE013EC0B8
:100D0000D9011396FC93EE9312974D915D91A40F28
:100D1000B51FEA17FB0779F480819181840F951F35
:100D20000296D90111969C938E938281938113969A
:100D30009C938E931297E0E0F0E08A819B8100976C
:100D400019F0FE01EC01F9CFCE010296288139811C
:100D5000820F931F2091DC013091DD0128173907A4
:100D600069F4309729F41092DF011092DE0102C07D
:100D700013821282D093DD01C093DC01DF91CF9109
:100D80000895A0E0B0E0E7ECF6E00C949F07EC01DA
:100D9000CB01209719F40E949A05B8C0FE01E60F16
:100DA000F71F9E0122503109E217F30708F4ACC087
:100DB000D9010D911C91119706171707B8F005304E
:100DC000110508F49FC0A801445051094617570760
:100DD00008F498C002501109061B170B01931193D8
:100DE0006D937C93CF010E9432068CC05B01A01AE8
:100DF000B10A4E01800E911EA091DE01B091DF017B
:100E0000612C712C60E070E0109709F449C0A815BE
:100E1000B905C9F5ED90FC901197670142E0C40E49
:100E2000D11CCA14DB0478F147018A189B086401BD
:100E300042E0C40ED11C1296BC9012971396AC914E
:100E4000B5E0CB16D10440F0B282A38391828082B8
:100E5000D9018D939C9309C00E5F1F4F0E0D1F1D6E
:100E6000F90111830083EB2DFA2F6115710531F023
:100E7000DB011396FC93EE93129744C0F093DF01CD
:100E8000E093DE013FC06D917C9111976616770665
:100E900008F43B01BD0112960D90BC91A02DB4CF7A
:100EA0006091DC017091DD0168157905E9F468163F
:100EB0007906D0F44091000150910101411551058E
:100EC00041F44DB75EB76091040170910501461B76
:100ED000570BE417F507C0F4F093DD01E093DC0154
:100EE000F901918380830EC00E949A057C010097CE
:100EF00059F0A801BE010E948B07CE010E94320664
:100F0000C70104C0CE0102C080E090E0CDB7DEB7DB
:100F1000EEE00C94BB07FB01DC0102C001900D92D6
:100F200041505040D8F70895FB01DC0101900D922B
:100F30000020E1F708952F923F924F925F926F92B7
:100F40007F928F929F92AF92BF92CF92DF92EF9259
:100F5000FF920F931F93CF93DF93CDB7DEB7CA1BDA
:100F6000DB0B0FB6F894DEBF0FBECDBF09942A8805
:100F7000398848885F846E847D848C849B84AA84AD
:100F8000B984C884DF80EE80FD800C811B81AA813A
:100F9000B981CE0FD11D0FB6F894DEBF0FBECDBF05
:080FA000ED010895F894FFCF64
:100FA8000000E001800001000000012300463A0033
:100FB800000000008C01F8020E01270119016A01E6
:100FC8000D0A006E616E00696E66006F7666002E0F
:020FD800000017
:00000001FF
